{
  "_format": "hh-sol-artifact-1",
  "contractName": "USDT",
  "sourceName": "contracts/USDT.sol",
  "abi": [
    {
      "inputs": [
        {
          "internalType": "uint256",
          "name": "_initialSupply",
          "type": "uint256"
        },
        {
          "internalType": "string",
          "name": "_name",
          "type": "string"
        },
        {
          "internalType": "string",
          "name": "_symbol",
          "type": "string"
        },
        {
          "internalType": "uint8",
          "name": "_decimals",
          "type": "uint8"
        }
      ],
      "stateMutability": "nonpayable",
      "type": "constructor"
    },
    {
      "anonymous": false,
      "inputs": [
        {
          "indexed": false,
          "internalType": "address",
          "name": "_user",
          "type": "address"
        }
      ],
      "name": "AddedBlackList",
      "type": "event"
    },
    {
      "anonymous": false,
      "inputs": [
        {
          "indexed": true,
          "internalType": "address",
          "name": "owner",
          "type": "address"
        },
        {
          "indexed": true,
          "internalType": "address",
          "name": "spender",
          "type": "address"
        },
        {
          "indexed": false,
          "internalType": "uint256",
          "name": "value",
          "type": "uint256"
        }
      ],
      "name": "Approval",
      "type": "event"
    },
    {
      "anonymous": false,
      "inputs": [
        {
          "indexed": false,
          "internalType": "address",
          "name": "newAddress",
          "type": "address"
        }
      ],
      "name": "Deprecate",
      "type": "event"
    },
    {
      "anonymous": false,
      "inputs": [
        {
          "indexed": false,
          "internalType": "address",
          "name": "_blackListedUser",
          "type": "address"
        },
        {
          "indexed": false,
          "internalType": "uint256",
          "name": "_balance",
          "type": "uint256"
        }
      ],
      "name": "DestroyedBlackFunds",
      "type": "event"
    },
    {
      "anonymous": false,
      "inputs": [
        {
          "indexed": false,
          "internalType": "uint256",
          "name": "amount",
          "type": "uint256"
        }
      ],
      "name": "Issue",
      "type": "event"
    },
    {
      "anonymous": false,
      "inputs": [
        {
          "indexed": true,
          "internalType": "address",
          "name": "previousOwner",
          "type": "address"
        },
        {
          "indexed": true,
          "internalType": "address",
          "name": "newOwner",
          "type": "address"
        }
      ],
      "name": "OwnershipTransferred",
      "type": "event"
    },
    {
      "anonymous": false,
      "inputs": [
        {
          "indexed": false,
          "internalType": "uint256",
          "name": "feeBasisPoints",
          "type": "uint256"
        },
        {
          "indexed": false,
          "internalType": "uint256",
          "name": "maxFee",
          "type": "uint256"
        }
      ],
      "name": "Params",
      "type": "event"
    },
    {
      "anonymous": false,
      "inputs": [
        {
          "indexed": false,
          "internalType": "address",
          "name": "account",
          "type": "address"
        }
      ],
      "name": "Paused",
      "type": "event"
    },
    {
      "anonymous": false,
      "inputs": [
        {
          "indexed": false,
          "internalType": "uint256",
          "name": "amount",
          "type": "uint256"
        }
      ],
      "name": "Redeem",
      "type": "event"
    },
    {
      "anonymous": false,
      "inputs": [
        {
          "indexed": false,
          "internalType": "address",
          "name": "_user",
          "type": "address"
        }
      ],
      "name": "RemovedBlackList",
      "type": "event"
    },
    {
      "anonymous": false,
      "inputs": [
        {
          "indexed": true,
          "internalType": "address",
          "name": "from",
          "type": "address"
        },
        {
          "indexed": true,
          "internalType": "address",
          "name": "to",
          "type": "address"
        },
        {
          "indexed": false,
          "internalType": "uint256",
          "name": "value",
          "type": "uint256"
        }
      ],
      "name": "Transfer",
      "type": "event"
    },
    {
      "anonymous": false,
      "inputs": [
        {
          "indexed": false,
          "internalType": "address",
          "name": "account",
          "type": "address"
        }
      ],
      "name": "Unpaused",
      "type": "event"
    },
    {
      "inputs": [],
      "name": "MAX_UINT",
      "outputs": [
        {
          "internalType": "uint256",
          "name": "",
          "type": "uint256"
        }
      ],
      "stateMutability": "view",
      "type": "function"
    },
    {
      "inputs": [
        {
          "internalType": "address",
          "name": "_evilUser",
          "type": "address"
        }
      ],
      "name": "addBlackList",
      "outputs": [],
      "stateMutability": "nonpayable",
      "type": "function"
    },
    {
      "inputs": [
        {
          "internalType": "address",
          "name": "owner",
          "type": "address"
        },
        {
          "internalType": "address",
          "name": "spender",
          "type": "address"
        }
      ],
      "name": "allowance",
      "outputs": [
        {
          "internalType": "uint256",
          "name": "",
          "type": "uint256"
        }
      ],
      "stateMutability": "view",
      "type": "function"
    },
    {
      "inputs": [
        {
          "internalType": "address",
          "name": "spender",
          "type": "address"
        },
        {
          "internalType": "uint256",
          "name": "value",
          "type": "uint256"
        }
      ],
      "name": "approve",
      "outputs": [
        {
          "internalType": "bool",
          "name": "",
          "type": "bool"
        }
      ],
      "stateMutability": "nonpayable",
      "type": "function"
    },
    {
      "inputs": [
        {
          "internalType": "address",
          "name": "account",
          "type": "address"
        }
      ],
      "name": "balanceOf",
      "outputs": [
        {
          "internalType": "uint256",
          "name": "",
          "type": "uint256"
        }
      ],
      "stateMutability": "view",
      "type": "function"
    },
    {
      "inputs": [],
      "name": "basisPointsRate",
      "outputs": [
        {
          "internalType": "uint256",
          "name": "",
          "type": "uint256"
        }
      ],
      "stateMutability": "view",
      "type": "function"
    },
    {
      "inputs": [
        {
          "internalType": "uint256",
          "name": "amount",
          "type": "uint256"
        }
      ],
      "name": "burn",
      "outputs": [],
      "stateMutability": "nonpayable",
      "type": "function"
    },
    {
      "inputs": [
        {
          "internalType": "address",
          "name": "account",
          "type": "address"
        },
        {
          "internalType": "uint256",
          "name": "amount",
          "type": "uint256"
        }
      ],
      "name": "burnFrom",
      "outputs": [],
      "stateMutability": "nonpayable",
      "type": "function"
    },
    {
      "inputs": [],
      "name": "decimals",
      "outputs": [
        {
          "internalType": "uint8",
          "name": "",
          "type": "uint8"
        }
      ],
      "stateMutability": "view",
      "type": "function"
    },
    {
      "inputs": [
        {
          "internalType": "address",
          "name": "spender",
          "type": "address"
        },
        {
          "internalType": "uint256",
          "name": "subtractedValue",
          "type": "uint256"
        }
      ],
      "name": "decreaseAllowance",
      "outputs": [
        {
          "internalType": "bool",
          "name": "",
          "type": "bool"
        }
      ],
      "stateMutability": "nonpayable",
      "type": "function"
    },
    {
      "inputs": [
        {
          "internalType": "address",
          "name": "_upgradedAddress",
          "type": "address"
        }
      ],
      "name": "deprecate",
      "outputs": [],
      "stateMutability": "nonpayable",
      "type": "function"
    },
    {
      "inputs": [],
      "name": "deprecated",
      "outputs": [
        {
          "internalType": "bool",
          "name": "",
          "type": "bool"
        }
      ],
      "stateMutability": "view",
      "type": "function"
    },
    {
      "inputs": [
        {
          "internalType": "address",
          "name": "_blackListedUser",
          "type": "address"
        }
      ],
      "name": "destroyBlackFunds",
      "outputs": [],
      "stateMutability": "nonpayable",
      "type": "function"
    },
    {
      "inputs": [
        {
          "internalType": "address",
          "name": "_maker",
          "type": "address"
        }
      ],
      "name": "getBlackListStatus",
      "outputs": [
        {
          "internalType": "bool",
          "name": "",
          "type": "bool"
        }
      ],
      "stateMutability": "view",
      "type": "function"
    },
    {
      "inputs": [],
      "name": "getOwner",
      "outputs": [
        {
          "internalType": "address",
          "name": "",
          "type": "address"
        }
      ],
      "stateMutability": "view",
      "type": "function"
    },
    {
      "inputs": [
        {
          "internalType": "address",
          "name": "spender",
          "type": "address"
        },
        {
          "internalType": "uint256",
          "name": "addedValue",
          "type": "uint256"
        }
      ],
      "name": "increaseAllowance",
      "outputs": [
        {
          "internalType": "bool",
          "name": "",
          "type": "bool"
        }
      ],
      "stateMutability": "nonpayable",
      "type": "function"
    },
    {
      "inputs": [
        {
          "internalType": "address",
          "name": "",
          "type": "address"
        }
      ],
      "name": "isBlackListed",
      "outputs": [
        {
          "internalType": "bool",
          "name": "",
          "type": "bool"
        }
      ],
      "stateMutability": "view",
      "type": "function"
    },
    {
      "inputs": [
        {
          "internalType": "uint256",
          "name": "amount",
          "type": "uint256"
        }
      ],
      "name": "issue",
      "outputs": [],
      "stateMutability": "nonpayable",
      "type": "function"
    },
    {
      "inputs": [],
      "name": "maximumFee",
      "outputs": [
        {
          "internalType": "uint256",
          "name": "",
          "type": "uint256"
        }
      ],
      "stateMutability": "view",
      "type": "function"
    },
    {
      "inputs": [],
      "name": "name",
      "outputs": [
        {
          "internalType": "string",
          "name": "",
          "type": "string"
        }
      ],
      "stateMutability": "view",
      "type": "function"
    },
    {
      "inputs": [],
      "name": "owner",
      "outputs": [
        {
          "internalType": "address",
          "name": "",
          "type": "address"
        }
      ],
      "stateMutability": "view",
      "type": "function"
    },
    {
      "inputs": [],
      "name": "pause",
      "outputs": [],
      "stateMutability": "nonpayable",
      "type": "function"
    },
    {
      "inputs": [],
      "name": "paused",
      "outputs": [
        {
          "internalType": "bool",
          "name": "",
          "type": "bool"
        }
      ],
      "stateMutability": "view",
      "type": "function"
    },
    {
      "inputs": [
        {
          "internalType": "uint256",
          "name": "amount",
          "type": "uint256"
        }
      ],
      "name": "redeem",
      "outputs": [],
      "stateMutability": "nonpayable",
      "type": "function"
    },
    {
      "inputs": [
        {
          "internalType": "address",
          "name": "_clearedUser",
          "type": "address"
        }
      ],
      "name": "removeBlackList",
      "outputs": [],
      "stateMutability": "nonpayable",
      "type": "function"
    },
    {
      "inputs": [],
      "name": "renounceOwnership",
      "outputs": [],
      "stateMutability": "nonpayable",
      "type": "function"
    },
    {
      "inputs": [
        {
          "internalType": "uint256",
          "name": "newBasisPoints",
          "type": "uint256"
        },
        {
          "internalType": "uint256",
          "name": "newMaxFee",
          "type": "uint256"
        }
      ],
      "name": "setParams",
      "outputs": [],
      "stateMutability": "nonpayable",
      "type": "function"
    },
    {
      "inputs": [],
      "name": "symbol",
      "outputs": [
        {
          "internalType": "string",
          "name": "",
          "type": "string"
        }
      ],
      "stateMutability": "view",
      "type": "function"
    },
    {
      "inputs": [],
      "name": "totalSupply",
      "outputs": [
        {
          "internalType": "uint256",
          "name": "",
          "type": "uint256"
        }
      ],
      "stateMutability": "view",
      "type": "function"
    },
    {
      "inputs": [
        {
          "internalType": "address",
          "name": "to",
          "type": "address"
        },
        {
          "internalType": "uint256",
          "name": "value",
          "type": "uint256"
        }
      ],
      "name": "transfer",
      "outputs": [
        {
          "internalType": "bool",
          "name": "",
          "type": "bool"
        }
      ],
      "stateMutability": "nonpayable",
      "type": "function"
    },
    {
      "inputs": [
        {
          "internalType": "address",
          "name": "from",
          "type": "address"
        },
        {
          "internalType": "address",
          "name": "to",
          "type": "address"
        },
        {
          "internalType": "uint256",
          "name": "value",
          "type": "uint256"
        }
      ],
      "name": "transferFrom",
      "outputs": [
        {
          "internalType": "bool",
          "name": "",
          "type": "bool"
        }
      ],
      "stateMutability": "nonpayable",
      "type": "function"
    },
    {
      "inputs": [
        {
          "internalType": "address",
          "name": "newOwner",
          "type": "address"
        }
      ],
      "name": "transferOwnership",
      "outputs": [],
      "stateMutability": "nonpayable",
      "type": "function"
    },
    {
      "inputs": [],
      "name": "unpause",
      "outputs": [],
      "stateMutability": "nonpayable",
      "type": "function"
    },
    {
      "inputs": [],
      "name": "upgradedAddress",
      "outputs": [
        {
          "internalType": "address",
          "name": "",
          "type": "address"
        }
      ],
      "stateMutability": "view",
      "type": "function"
    }
  ],
  "bytecode": "0x6080604052600060065560006007553480156200001b57600080fd5b5060405162001b8a38038062001b8a8339810160408190526200003e9162000354565b82518390839062000057906003906020850190620001e1565b5080516200006d906004906020840190620001e1565b5050506200008a62000084620000c560201b60201c565b620000c9565b6005805460ff60a01b19169055620000bb33620000a983600a620004f7565b620000b590876200050f565b6200011b565b5050505062000589565b3390565b600580546001600160a01b038381166001600160a01b0319831681179093556040519116919082907f8be0079c531659141344cd1fd0a4f28419497f9722a3daafe3b4186f6b6457e090600090a35050565b6001600160a01b038216620001765760405162461bcd60e51b815260206004820152601f60248201527f45524332303a206d696e7420746f20746865207a65726f206164647265737300604482015260640160405180910390fd5b80600260008282546200018a919062000531565b90915550506001600160a01b038216600081815260208181526040808320805486019055518481527fddf252ad1be2c89b69c2b068fc378daa952ba7f163c4a11628f55a4df523b3ef910160405180910390a35050565b828054620001ef906200054c565b90600052602060002090601f0160209004810192826200021357600085556200025e565b82601f106200022e57805160ff19168380011785556200025e565b828001600101855582156200025e579182015b828111156200025e57825182559160200191906001019062000241565b506200026c92915062000270565b5090565b5b808211156200026c576000815560010162000271565b634e487b7160e01b600052604160045260246000fd5b600082601f830112620002af57600080fd5b81516001600160401b0380821115620002cc57620002cc62000287565b604051601f8301601f19908116603f01168101908282118183101715620002f757620002f762000287565b816040528381526020925086838588010111156200031457600080fd5b600091505b8382101562000338578582018301518183018401529082019062000319565b838211156200034a5760008385830101525b9695505050505050565b600080600080608085870312156200036b57600080fd5b845160208601519094506001600160401b03808211156200038b57600080fd5b62000399888389016200029d565b94506040870151915080821115620003b057600080fd5b50620003bf878288016200029d565b925050606085015160ff81168114620003d757600080fd5b939692955090935050565b634e487b7160e01b600052601160045260246000fd5b600181815b80851115620004395781600019048211156200041d576200041d620003e2565b808516156200042b57918102915b93841c9390800290620003fd565b509250929050565b6000826200045257506001620004f1565b816200046157506000620004f1565b81600181146200047a57600281146200048557620004a5565b6001915050620004f1565b60ff841115620004995762000499620003e2565b50506001821b620004f1565b5060208310610133831016604e8410600b8410161715620004ca575081810a620004f1565b620004d68383620003f8565b8060001904821115620004ed57620004ed620003e2565b0290505b92915050565b60006200050860ff84168362000441565b9392505050565b60008160001904831182151516156200052c576200052c620003e2565b500290565b60008219821115620005475762000547620003e2565b500190565b600181811c908216806200056157607f821691505b602082108114156200058357634e487b7160e01b600052602260045260246000fd5b50919050565b6115f180620005996000396000f3fe608060405234801561001057600080fd5b50600436106102065760003560e01c806379cc67901161011a578063cc872b66116100ad578063e47d60601161007c578063e47d606014610444578063e4997dc514610467578063e5b5019a1461047a578063f2fde38b14610483578063f3bdc2281461049657600080fd5b8063cc872b6614610402578063db006a7514610415578063dd62ed3e14610428578063dd644f721461043b57600080fd5b806395d89b41116100e957806395d89b41146103c1578063a457c2d7146103c9578063a9059cbb146103dc578063c0324c77146103ef57600080fd5b806379cc67901461038d5780638456cb59146103a0578063893d20e8146103a85780638da5cb5b146103b057600080fd5b8063313ce5671161019d57806342966c681161016c57806342966c681461030b57806359bf1abe1461031e5780635c975abb1461034a57806370a082311461035c578063715018a61461038557600080fd5b8063313ce567146102d857806335390714146102e757806339509351146102f05780633f4ba83a1461030357600080fd5b80630ecb93c0116101d95780630ecb93c01461027557806318160ddd1461028857806323b872dd1461029a57806326976e3f146102ad57600080fd5b806306fdde031461020b5780630753c30c14610229578063095ea7b31461023e5780630e136b1914610261575b600080fd5b6102136104a9565b6040516102209190611393565b60405180910390f35b61023c610237366004611404565b61053b565b005b61025161024c366004611426565b610604565b6040519015158152602001610220565b60085461025190600160a01b900460ff1681565b61023c610283366004611404565b61061c565b6002545b604051908152602001610220565b6102516102a8366004611450565b610678565b6008546102c0906001600160a01b031681565b6040516001600160a01b039091168152602001610220565b60405160128152602001610220565b61028c60075481565b6102516102fe366004611426565b61069c565b61023c6106be565b61023c61031936600461148c565b6106d0565b61025161032c366004611404565b6001600160a01b031660009081526009602052604090205460ff1690565b600554600160a01b900460ff16610251565b61028c61036a366004611404565b6001600160a01b031660009081526020819052604090205490565b61023c6106de565b61023c61039b366004611426565b6106f0565b61023c610709565b6102c0610719565b6005546001600160a01b03166102c0565b610213610732565b6102516103d7366004611426565b610741565b6102516103ea366004611426565b6107bc565b61023c6103fd3660046114a5565b6107ca565b61023c61041036600461148c565b6108ba565b61023c61042336600461148c565b61090d565b61028c6104363660046114c7565b61095a565b61028c60065481565b610251610452366004611404565b60096020526000908152604090205460ff1681565b61023c610475366004611404565b610985565b61028c60001981565b61023c610491366004611404565b6109de565b61023c6104a4366004611404565b610a54565b6060600380546104b8906114fa565b80601f01602080910402602001604051908101604052809291908181526020018280546104e4906114fa565b80156105315780601f1061050657610100808354040283529160200191610531565b820191906000526020600020905b81548152906001019060200180831161051457829003601f168201915b5050505050905090565b610543610b26565b6001600160a01b0381166105a95760405162461bcd60e51b815260206004820152602260248201527f4e657720616464726573732063616e6e6f74206265207a65726f206164647265604482015261737360f01b60648201526084015b60405180910390fd5b600880546001600160a81b0319166001600160a01b038316908117600160a01b179091556040519081527fcc358699805e9a8b7f77b522628c7cb9abd07d9efb86b6fb616af1609036a99e906020015b60405180910390a150565b600033610612818585610b80565b5060019392505050565b610624610b26565b6001600160a01b038116600081815260096020908152604091829020805460ff1916600117905590519182527f42e160154868087d6bfdc0ca23d96a1c1cfa32f1b72ba9ba27b69b98a0d819dc91016105f9565b600033610686858285610ca4565b610691858585610d1e565b506001949350505050565b6000336106128185856106af838361095a565b6106b9919061154b565b610b80565b6106c6610b26565b6106ce610e77565b565b6106db335b82610ecc565b50565b6106e6610b26565b6106ce6000610ffe565b6106fb823383610ca4565b6107058282610ecc565b5050565b610711610b26565b6106ce611050565b600061072d6005546001600160a01b031690565b905090565b6060600480546104b8906114fa565b6000338161074f828661095a565b9050838110156107af5760405162461bcd60e51b815260206004820152602560248201527f45524332303a2064656372656173656420616c6c6f77616e63652062656c6f77604482015264207a65726f60d81b60648201526084016105a0565b6106918286868403610b80565b600033610612818585610d1e565b6107d2610b26565b601482106108225760405162461bcd60e51b815260206004820152601f60248201527f426173697320706f696e74732063616e6e6f742065786365656420302e32250060448201526064016105a0565b603281106108725760405162461bcd60e51b815260206004820152601e60248201527f4d6178696d756d206665652063616e6e6f742065786365656420302e3525000060448201526064016105a0565b6006829055600781905560408051838152602081018390527fb044a1e409eac5c48e5af22d4af52670dd1a99059537a78b31b48c6500a6354e91015b60405180910390a15050565b6108c2610b26565b6108dd6108d76005546001600160a01b031690565b82611093565b6040518181527fcb8241adb0c3fdb35b70c24ce35c5eb0c17af7431c99f827d44a445ca624176a906020016105f9565b610915610b26565b61092a6106d56005546001600160a01b031690565b6040518181527f702d5967f45f6513a38ffc42d6ba9bf230bd40e8f53b16363c7eb4fd2deb9a44906020016105f9565b6001600160a01b03918216600090815260016020908152604080832093909416825291909152205490565b61098d610b26565b6001600160a01b038116600081815260096020908152604091829020805460ff1916905590519182527fd7e9ec6e6ecd65492dce6bf513cd6867560d49544421d0783ddf06e76c24470c91016105f9565b6109e6610b26565b6001600160a01b038116610a4b5760405162461bcd60e51b815260206004820152602660248201527f4f776e61626c653a206e6577206f776e657220697320746865207a65726f206160448201526564647265737360d01b60648201526084016105a0565b6106db81610ffe565b610a5c610b26565b6001600160a01b03811660009081526009602052604090205460ff16610ac45760405162461bcd60e51b815260206004820152601a60248201527f41646472657373206973206e6f7420626c61636b6c697374656400000000000060448201526064016105a0565b6001600160a01b038116600090815260208190526040902054610ae78282610ecc565b604080516001600160a01b0384168152602081018390527f61e6e66b0d6339b2980aecc6ccc0039736791f0ccde9ed512e789a7fbdd698c691016108ae565b6005546001600160a01b031633146106ce5760405162461bcd60e51b815260206004820181905260248201527f4f776e61626c653a2063616c6c6572206973206e6f7420746865206f776e657260448201526064016105a0565b6001600160a01b038316610be25760405162461bcd60e51b8152602060048201526024808201527f45524332303a20617070726f76652066726f6d20746865207a65726f206164646044820152637265737360e01b60648201526084016105a0565b6001600160a01b038216610c435760405162461bcd60e51b815260206004820152602260248201527f45524332303a20617070726f766520746f20746865207a65726f206164647265604482015261737360f01b60648201526084016105a0565b6001600160a01b0383811660008181526001602090815260408083209487168084529482529182902085905590518481527f8c5be1e5ebec7d5bd14f71427d1e84f3dd0314c0f7b2291e5b200ac8c7c3b925910160405180910390a3505050565b6000610cb0848461095a565b90506000198114610d185781811015610d0b5760405162461bcd60e51b815260206004820152601d60248201527f45524332303a20696e73756666696369656e7420616c6c6f77616e636500000060448201526064016105a0565b610d188484848403610b80565b50505050565b610d26611152565b6001600160a01b03831660009081526009602052604090205460ff1615610d875760405162461bcd60e51b815260206004820152601560248201527414d95b99195c881a5cc8189b1858dadb1a5cdd1959605a1b60448201526064016105a0565b6001600160a01b03821660009081526009602052604090205460ff1615610df05760405162461bcd60e51b815260206004820152601860248201527f526563697069656e7420697320626c61636b6c6973746564000000000000000060448201526064016105a0565b600854600160a01b900460ff1615610e0757505050565b600061271060065483610e1a9190611563565b610e249190611582565b9050600754811115610e3557506007545b6000610e4182846115a4565b9050610e4e85858361119f565b8115610e7057610e7085610e6a6005546001600160a01b031690565b8461119f565b5050505050565b610e7f611343565b6005805460ff60a01b191690557f5db9ee0a495bf2e6ff9c91a7834c1ba4fdd244a5e8aa4e537bd38aeae4b073aa335b6040516001600160a01b03909116815260200160405180910390a1565b6001600160a01b038216610f2c5760405162461bcd60e51b815260206004820152602160248201527f45524332303a206275726e2066726f6d20746865207a65726f206164647265736044820152607360f81b60648201526084016105a0565b6001600160a01b03821660009081526020819052604090205481811015610fa05760405162461bcd60e51b815260206004820152602260248201527f45524332303a206275726e20616d6f756e7420657863656564732062616c616e604482015261636560f01b60648201526084016105a0565b6001600160a01b0383166000818152602081815260408083208686039055600280548790039055518581529192917fddf252ad1be2c89b69c2b068fc378daa952ba7f163c4a11628f55a4df523b3ef910160405180910390a3505050565b600580546001600160a01b038381166001600160a01b0319831681179093556040519116919082907f8be0079c531659141344cd1fd0a4f28419497f9722a3daafe3b4186f6b6457e090600090a35050565b611058611152565b6005805460ff60a01b1916600160a01b1790557f62e78cea01bee320cd4e420270b5ea74000d11b0c9f74754ebdbfc544b05a258610eaf3390565b6001600160a01b0382166110e95760405162461bcd60e51b815260206004820152601f60248201527f45524332303a206d696e7420746f20746865207a65726f20616464726573730060448201526064016105a0565b80600260008282546110fb919061154b565b90915550506001600160a01b038216600081815260208181526040808320805486019055518481527fddf252ad1be2c89b69c2b068fc378daa952ba7f163c4a11628f55a4df523b3ef910160405180910390a35050565b600554600160a01b900460ff16156106ce5760405162461bcd60e51b815260206004820152601060248201526f14185d5cd8589b194e881c185d5cd95960821b60448201526064016105a0565b6001600160a01b0383166112035760405162461bcd60e51b815260206004820152602560248201527f45524332303a207472616e736665722066726f6d20746865207a65726f206164604482015264647265737360d81b60648201526084016105a0565b6001600160a01b0382166112655760405162461bcd60e51b815260206004820152602360248201527f45524332303a207472616e7366657220746f20746865207a65726f206164647260448201526265737360e81b60648201526084016105a0565b6001600160a01b038316600090815260208190526040902054818110156112dd5760405162461bcd60e51b815260206004820152602660248201527f45524332303a207472616e7366657220616d6f756e7420657863656564732062604482015265616c616e636560d01b60648201526084016105a0565b6001600160a01b03848116600081815260208181526040808320878703905593871680835291849020805487019055925185815290927fddf252ad1be2c89b69c2b068fc378daa952ba7f163c4a11628f55a4df523b3ef910160405180910390a3610d18565b600554600160a01b900460ff166106ce5760405162461bcd60e51b815260206004820152601460248201527314185d5cd8589b194e881b9bdd081c185d5cd95960621b60448201526064016105a0565b600060208083528351808285015260005b818110156113c0578581018301518582016040015282016113a4565b818111156113d2576000604083870101525b50601f01601f1916929092016040019392505050565b80356001600160a01b03811681146113ff57600080fd5b919050565b60006020828403121561141657600080fd5b61141f826113e8565b9392505050565b6000806040838503121561143957600080fd5b611442836113e8565b946020939093013593505050565b60008060006060848603121561146557600080fd5b61146e846113e8565b925061147c602085016113e8565b9150604084013590509250925092565b60006020828403121561149e57600080fd5b5035919050565b600080604083850312156114b857600080fd5b50508035926020909101359150565b600080604083850312156114da57600080fd5b6114e3836113e8565b91506114f1602084016113e8565b90509250929050565b600181811c9082168061150e57607f821691505b6020821081141561152f57634e487b7160e01b600052602260045260246000fd5b50919050565b634e487b7160e01b600052601160045260246000fd5b6000821982111561155e5761155e611535565b500190565b600081600019048311821515161561157d5761157d611535565b500290565b60008261159f57634e487b7160e01b600052601260045260246000fd5b500490565b6000828210156115b6576115b6611535565b50039056fea2646970667358221220e2bf69e4195692675004e3a4b23da754a66c4609ca6026631929ec74a4b70b9d64736f6c63430008090033",
  "linkReferences": {},
  "deployedLinkReferences": {}
}