{
  "_format": "hh-sol-artifact-1",
  "contractName": "ChainLink",
  "sourceName": "contracts/ChainLink.sol",
  "abi": [
    {
      "inputs": [],
      "stateMutability": "nonpayable",
      "type": "constructor"
    },
    {
      "anonymous": false,
      "inputs": [
        {
          "indexed": true,
          "internalType": "address",
          "name": "previousOwner",
          "type": "address"
        },
        {
          "indexed": true,
          "internalType": "address",
          "name": "newOwner",
          "type": "address"
        }
      ],
      "name": "OwnershipTransferred",
      "type": "event"
    },
    {
      "inputs": [],
      "name": "decimals",
      "outputs": [
        {
          "internalType": "uint8",
          "name": "",
          "type": "uint8"
        }
      ],
      "stateMutability": "view",
      "type": "function"
    },
    {
      "inputs": [],
      "name": "description",
      "outputs": [
        {
          "internalType": "string",
          "name": "",
          "type": "string"
        }
      ],
      "stateMutability": "view",
      "type": "function"
    },
    {
      "inputs": [],
      "name": "getLatestPrice",
      "outputs": [
        {
          "internalType": "uint256",
          "name": "",
          "type": "uint256"
        }
      ],
      "stateMutability": "view",
      "type": "function"
    },
    {
      "inputs": [],
      "name": "latestRoundData",
      "outputs": [
        {
          "internalType": "uint80",
          "name": "roundId",
          "type": "uint80"
        },
        {
          "internalType": "int256",
          "name": "answer",
          "type": "int256"
        },
        {
          "internalType": "uint256",
          "name": "startedAt",
          "type": "uint256"
        },
        {
          "internalType": "uint256",
          "name": "updatedAt",
          "type": "uint256"
        },
        {
          "internalType": "uint80",
          "name": "answeredInRound",
          "type": "uint80"
        }
      ],
      "stateMutability": "view",
      "type": "function"
    },
    {
      "inputs": [],
      "name": "owner",
      "outputs": [
        {
          "internalType": "address",
          "name": "",
          "type": "address"
        }
      ],
      "stateMutability": "view",
      "type": "function"
    },
    {
      "inputs": [],
      "name": "renounceOwnership",
      "outputs": [],
      "stateMutability": "nonpayable",
      "type": "function"
    },
    {
      "inputs": [
        {
          "internalType": "address",
          "name": "newOwner",
          "type": "address"
        }
      ],
      "name": "transferOwnership",
      "outputs": [],
      "stateMutability": "nonpayable",
      "type": "function"
    },
    {
      "inputs": [
        {
          "internalType": "uint256",
          "name": "_newPrice",
          "type": "uint256"
        }
      ],
      "name": "updatePrice",
      "outputs": [],
      "stateMutability": "nonpayable",
      "type": "function"
    }
  ],
  "bytecode": "0x6002805460ff1916600817905560c06040526009608081905268115512080bc81554d160ba1b60a090815261003791600391906100ac565b5034801561004457600080fd5b5061004e3361005c565b6445d964b800600155610180565b600080546001600160a01b038381166001600160a01b0319831681178455604051919092169283917f8be0079c531659141344cd1fd0a4f28419497f9722a3daafe3b4186f6b6457e09190a35050565b8280546100b890610145565b90600052602060002090601f0160209004810192826100da5760008555610120565b82601f106100f357805160ff1916838001178555610120565b82800160010185558215610120579182015b82811115610120578251825591602001919060010190610105565b5061012c929150610130565b5090565b5b8082111561012c5760008155600101610131565b600181811c9082168061015957607f821691505b6020821081141561017a57634e487b7160e01b600052602260045260246000fd5b50919050565b6104988061018f6000396000f3fe608060405234801561001057600080fd5b50600436106100885760003560e01c80638da5cb5b1161005b5780638da5cb5b146100e35780638e15f473146100fe578063f2fde38b1461010f578063feaf968c1461012257600080fd5b8063313ce5671461008d578063715018a6146100b15780637284e416146100bb5780638d6cc56d146100d0575b600080fd5b60025461009a9060ff1681565b60405160ff90911681526020015b60405180910390f35b6100b9610161565b005b6100c3610175565b6040516100a89190610364565b6100b96100de3660046103b9565b610203565b6000546040516001600160a01b0390911681526020016100a8565b6001546040519081526020016100a8565b6100b961011d3660046103d2565b610210565b61012a61028e565b6040805169ffffffffffffffffffff968716815260208101959095528401929092526060830152909116608082015260a0016100a8565b6101696102ba565b6101736000610314565b565b6003805461018290610402565b80601f01602080910402602001604051908101604052809291908181526020018280546101ae90610402565b80156101fb5780601f106101d0576101008083540402835291602001916101fb565b820191906000526020600020905b8154815290600101906020018083116101de57829003601f168201915b505050505081565b61020b6102ba565b600155565b6102186102ba565b6001600160a01b0381166102825760405162461bcd60e51b815260206004820152602660248201527f4f776e61626c653a206e6577206f776e657220697320746865207a65726f206160448201526564647265737360d01b60648201526084015b60405180910390fd5b61028b81610314565b50565b600080600080600043600154610e10426102a8919061043d565b91979096509094504293504392509050565b6000546001600160a01b031633146101735760405162461bcd60e51b815260206004820181905260248201527f4f776e61626c653a2063616c6c6572206973206e6f7420746865206f776e65726044820152606401610279565b600080546001600160a01b038381166001600160a01b0319831681178455604051919092169283917f8be0079c531659141344cd1fd0a4f28419497f9722a3daafe3b4186f6b6457e09190a35050565b600060208083528351808285015260005b8181101561039157858101830151858201604001528201610375565b818111156103a3576000604083870101525b50601f01601f1916929092016040019392505050565b6000602082840312156103cb57600080fd5b5035919050565b6000602082840312156103e457600080fd5b81356001600160a01b03811681146103fb57600080fd5b9392505050565b600181811c9082168061041657607f821691505b6020821081141561043757634e487b7160e01b600052602260045260246000fd5b50919050565b60008282101561045d57634e487b7160e01b600052601160045260246000fd5b50039056fea2646970667358221220b3e35ff0da2b52b6d69433a5c8ca7c31e024fd39ed45f72c3254699be38fa7bb64736f6c63430008090033",
  "linkReferences": {},
  "deployedLinkReferences": {}
}