{
  "_format": "hh-sol-artifact-1",
  "contractName": "MYIDPresale",
  "sourceName": "contracts/MYIDPresale.sol",
  "abi": [
    {
      "inputs": [],
      "stateMutability": "nonpayable",
      "type": "constructor"
    },
    {
      "anonymous": false,
      "inputs": [
        {
          "indexed": false,
          "internalType": "address",
          "name": "buyer",
          "type": "address"
        },
        {
          "indexed": false,
          "internalType": "uint256",
          "name": "ethAmount",
          "type": "uint256"
        },
        {
          "indexed": false,
          "internalType": "uint256",
          "name": "timestamp",
          "type": "uint256"
        }
      ],
      "name": "ContributedETH",
      "type": "event"
    },
    {
      "anonymous": false,
      "inputs": [
        {
          "indexed": false,
          "internalType": "address",
          "name": "buyer",
          "type": "address"
        },
        {
          "indexed": false,
          "internalType": "uint256",
          "name": "amountBought",
          "type": "uint256"
        },
        {
          "indexed": false,
          "internalType": "uint256",
          "name": "timestamp",
          "type": "uint256"
        }
      ],
      "name": "ContributedUsdt",
      "type": "event"
    },
    {
      "anonymous": false,
      "inputs": [
        {
          "indexed": true,
          "internalType": "address",
          "name": "previousOwner",
          "type": "address"
        },
        {
          "indexed": true,
          "internalType": "address",
          "name": "newOwner",
          "type": "address"
        }
      ],
      "name": "OwnershipTransferred",
      "type": "event"
    },
    {
      "inputs": [],
      "name": "assetsBalance",
      "outputs": [
        {
          "internalType": "uint256",
          "name": "usdtBal",
          "type": "uint256"
        },
        {
          "internalType": "uint256",
          "name": "ethBal",
          "type": "uint256"
        }
      ],
      "stateMutability": "view",
      "type": "function"
    },
    {
      "inputs": [
        {
          "internalType": "address",
          "name": "_addr",
          "type": "address"
        }
      ],
      "name": "balancesOf",
      "outputs": [
        {
          "internalType": "uint256",
          "name": "",
          "type": "uint256"
        },
        {
          "internalType": "uint256",
          "name": "",
          "type": "uint256"
        },
        {
          "internalType": "uint256",
          "name": "",
          "type": "uint256"
        },
        {
          "internalType": "uint256",
          "name": "",
          "type": "uint256"
        }
      ],
      "stateMutability": "view",
      "type": "function"
    },
    {
      "inputs": [
        {
          "internalType": "address",
          "name": "",
          "type": "address"
        }
      ],
      "name": "boughtTokens",
      "outputs": [
        {
          "internalType": "uint256",
          "name": "",
          "type": "uint256"
        }
      ],
      "stateMutability": "view",
      "type": "function"
    },
    {
      "inputs": [],
      "name": "chainLink",
      "outputs": [
        {
          "internalType": "contract ChainLink",
          "name": "",
          "type": "address"
        }
      ],
      "stateMutability": "view",
      "type": "function"
    },
    {
      "inputs": [],
      "name": "contributeEth",
      "outputs": [],
      "stateMutability": "payable",
      "type": "function"
    },
    {
      "inputs": [
        {
          "internalType": "uint256",
          "name": "usdtAmount",
          "type": "uint256"
        }
      ],
      "name": "contributeUSDT",
      "outputs": [],
      "stateMutability": "nonpayable",
      "type": "function"
    },
    {
      "inputs": [
        {
          "internalType": "address",
          "name": "",
          "type": "address"
        }
      ],
      "name": "contributionsEth",
      "outputs": [
        {
          "internalType": "uint256",
          "name": "",
          "type": "uint256"
        }
      ],
      "stateMutability": "view",
      "type": "function"
    },
    {
      "inputs": [
        {
          "internalType": "address",
          "name": "",
          "type": "address"
        }
      ],
      "name": "contributionsUSDT",
      "outputs": [
        {
          "internalType": "uint256",
          "name": "",
          "type": "uint256"
        }
      ],
      "stateMutability": "view",
      "type": "function"
    },
    {
      "inputs": [],
      "name": "ethPrice",
      "outputs": [
        {
          "internalType": "uint256",
          "name": "",
          "type": "uint256"
        }
      ],
      "stateMutability": "view",
      "type": "function"
    },
    {
      "inputs": [
        {
          "internalType": "uint256",
          "name": "ethAmount",
          "type": "uint256"
        }
      ],
      "name": "ethToTokens",
      "outputs": [
        {
          "internalType": "uint256",
          "name": "",
          "type": "uint256"
        }
      ],
      "stateMutability": "view",
      "type": "function"
    },
    {
      "inputs": [
        {
          "internalType": "uint256",
          "name": "ethAmount",
          "type": "uint256"
        }
      ],
      "name": "ethToUsd",
      "outputs": [
        {
          "internalType": "uint256",
          "name": "",
          "type": "uint256"
        }
      ],
      "stateMutability": "view",
      "type": "function"
    },
    {
      "inputs": [],
      "name": "genInfo",
      "outputs": [
        {
          "internalType": "uint256",
          "name": "",
          "type": "uint256"
        },
        {
          "internalType": "uint256",
          "name": "",
          "type": "uint256"
        },
        {
          "internalType": "uint256",
          "name": "",
          "type": "uint256"
        },
        {
          "internalType": "uint256",
          "name": "",
          "type": "uint256"
        },
        {
          "internalType": "uint256",
          "name": "",
          "type": "uint256"
        },
        {
          "internalType": "uint256",
          "name": "",
          "type": "uint256"
        }
      ],
      "stateMutability": "view",
      "type": "function"
    },
    {
      "inputs": [],
      "name": "getStage",
      "outputs": [
        {
          "internalType": "uint256",
          "name": "",
          "type": "uint256"
        }
      ],
      "stateMutability": "view",
      "type": "function"
    },
    {
      "inputs": [
        {
          "internalType": "address",
          "name": "_usdtAddress",
          "type": "address"
        },
        {
          "internalType": "address",
          "name": "_stakingTokenAddress",
          "type": "address"
        },
        {
          "internalType": "address",
          "name": "_chainLinkAddress",
          "type": "address"
        }
      ],
      "name": "initialize",
      "outputs": [],
      "stateMutability": "nonpayable",
      "type": "function"
    },
    {
      "inputs": [],
      "name": "owner",
      "outputs": [
        {
          "internalType": "address",
          "name": "",
          "type": "address"
        }
      ],
      "stateMutability": "view",
      "type": "function"
    },
    {
      "inputs": [],
      "name": "presaleEndTime",
      "outputs": [
        {
          "internalType": "uint256",
          "name": "",
          "type": "uint256"
        }
      ],
      "stateMutability": "view",
      "type": "function"
    },
    {
      "inputs": [],
      "name": "presaleSuccessful",
      "outputs": [
        {
          "internalType": "bool",
          "name": "",
          "type": "bool"
        }
      ],
      "stateMutability": "view",
      "type": "function"
    },
    {
      "inputs": [],
      "name": "progress",
      "outputs": [
        {
          "internalType": "uint256",
          "name": "",
          "type": "uint256"
        }
      ],
      "stateMutability": "view",
      "type": "function"
    },
    {
      "inputs": [],
      "name": "raisedUsdt",
      "outputs": [
        {
          "internalType": "uint256",
          "name": "",
          "type": "uint256"
        }
      ],
      "stateMutability": "view",
      "type": "function"
    },
    {
      "inputs": [],
      "name": "renounceOwnership",
      "outputs": [],
      "stateMutability": "nonpayable",
      "type": "function"
    },
    {
      "inputs": [
        {
          "internalType": "bool",
          "name": "_presaleSuccessful",
          "type": "bool"
        }
      ],
      "name": "setPresale",
      "outputs": [],
      "stateMutability": "nonpayable",
      "type": "function"
    },
    {
      "inputs": [],
      "name": "stakingToken",
      "outputs": [
        {
          "internalType": "contract IERC20",
          "name": "",
          "type": "address"
        }
      ],
      "stateMutability": "view",
      "type": "function"
    },
    {
      "inputs": [],
      "name": "stakingTokenAddress",
      "outputs": [
        {
          "internalType": "address",
          "name": "",
          "type": "address"
        }
      ],
      "stateMutability": "view",
      "type": "function"
    },
    {
      "inputs": [],
      "name": "tokensAllocatedForPresale",
      "outputs": [
        {
          "internalType": "uint256",
          "name": "",
          "type": "uint256"
        }
      ],
      "stateMutability": "view",
      "type": "function"
    },
    {
      "inputs": [],
      "name": "tokensPerUsdt",
      "outputs": [
        {
          "internalType": "uint256",
          "name": "",
          "type": "uint256"
        }
      ],
      "stateMutability": "view",
      "type": "function"
    },
    {
      "inputs": [],
      "name": "totalTokensSold",
      "outputs": [
        {
          "internalType": "uint256",
          "name": "",
          "type": "uint256"
        }
      ],
      "stateMutability": "view",
      "type": "function"
    },
    {
      "inputs": [
        {
          "internalType": "address",
          "name": "newOwner",
          "type": "address"
        }
      ],
      "name": "transferOwnership",
      "outputs": [],
      "stateMutability": "nonpayable",
      "type": "function"
    },
    {
      "inputs": [
        {
          "internalType": "uint256",
          "name": "_date",
          "type": "uint256"
        },
        {
          "internalType": "uint256",
          "name": "number",
          "type": "uint256"
        }
      ],
      "name": "updateDate",
      "outputs": [],
      "stateMutability": "nonpayable",
      "type": "function"
    },
    {
      "inputs": [],
      "name": "usdtAddress",
      "outputs": [
        {
          "internalType": "address",
          "name": "",
          "type": "address"
        }
      ],
      "stateMutability": "view",
      "type": "function"
    },
    {
      "inputs": [
        {
          "internalType": "uint256",
          "name": "usdtAmount",
          "type": "uint256"
        }
      ],
      "name": "usdtToTokens",
      "outputs": [
        {
          "internalType": "uint256",
          "name": "",
          "type": "uint256"
        }
      ],
      "stateMutability": "view",
      "type": "function"
    },
    {
      "inputs": [],
      "name": "usdtToken",
      "outputs": [
        {
          "internalType": "contract IERC20",
          "name": "",
          "type": "address"
        }
      ],
      "stateMutability": "view",
      "type": "function"
    },
    {
      "inputs": [],
      "name": "widthdrawEth",
      "outputs": [],
      "stateMutability": "nonpayable",
      "type": "function"
    },
    {
      "inputs": [
        {
          "internalType": "uint256",
          "name": "_amount",
          "type": "uint256"
        }
      ],
      "name": "widthdrawToken",
      "outputs": [],
      "stateMutability": "nonpayable",
      "type": "function"
    },
    {
      "inputs": [
        {
          "internalType": "uint256",
          "name": "_amount",
          "type": "uint256"
        }
      ],
      "name": "widthdrawUSDT",
      "outputs": [],
      "stateMutability": "nonpayable",
      "type": "function"
    }
  ],
  "bytecode": "0x6080604052600a6006556a084595161401484a00000060075560006008819055600955600b805460ff1916905534801561003857600080fd5b5061004233610057565b61004f4262278d006100a7565b600a556100cd565b600080546001600160a01b038381166001600160a01b0319831681178455604051919092169283917f8be0079c531659141344cd1fd0a4f28419497f9722a3daafe3b4186f6b6457e09190a35050565b600082198211156100c857634e487b7160e01b600052601160045260246000fd5b500190565b611518806100dc6000396000f3fe6080604052600436106101f95760003560e01c80638da5cb5b1161010d578063ba3ffb7c116100a0578063c69ea42f1161006f578063c69ea42f146105ce578063e0961b28146105fb578063f2fde38b1461061b578063fcaa76641461063b578063ff186b2e1461065057600080fd5b8063ba3ffb7c14610558578063bd4c1c6d1461056e578063c0c53b8b1461058e578063c54e73e3146105ae57600080fd5b8063a4c89322116100dc578063a4c89322146104ce578063a98ad46c146104ee578063afa0e8d51461050e578063b9702e2e1461051657600080fd5b80638da5cb5b14610450578063946d14801461046e5780639ab4a4451461048e578063a2b26dfe146104ae57600080fd5b8063682805b0116101905780637dbe5f101161015f5780637dbe5f10146103a35780637e3d1cf5146103c35780637f155823146103ed57806383bad1af14610403578063899b6dff1461043057600080fd5b8063682805b01461032b578063715018a61461034157806372f702f314610356578063752f2a5f1461037657600080fd5b8063577bd336116101cc578063577bd3361461029657806358c31f3b146102ab5780636392a51f146102d557806363b201171461031557600080fd5b806305c505f2146101fe578063249b7c191461023157806336363edd146102475780635298b8691461025e575b600080fd5b34801561020a57600080fd5b5061021e6102193660046112dc565b610665565b6040519081526020015b60405180910390f35b34801561023d57600080fd5b5061021e600a5481565b34801561025357600080fd5b5061025c61068a565b005b34801561026a57600080fd5b5060055461027e906001600160a01b031681565b6040516001600160a01b039091168152602001610228565b3480156102a257600080fd5b5061021e6106cf565b3480156102b757600080fd5b506102c06106f2565b60408051928352602083019190915201610228565b3480156102e157600080fd5b506102f56102f0366004611311565b61077a565b604080519485526020850193909352918301526060820152608001610228565b34801561032157600080fd5b5061021e60085481565b34801561033757600080fd5b5061021e60075481565b34801561034d57600080fd5b5061025c61083a565b34801561036257600080fd5b5060025461027e906001600160a01b031681565b34801561038257600080fd5b5061021e610391366004611311565b600c6020526000908152604090205481565b3480156103af57600080fd5b5060035461027e906001600160a01b031681565b3480156103cf57600080fd5b50600b546103dd9060ff1681565b6040519015158152602001610228565b3480156103f957600080fd5b5061021e60065481565b34801561040f57600080fd5b5061021e61041e366004611311565b600e6020526000908152604090205481565b34801561043c57600080fd5b5061025c61044b3660046112dc565b61084e565b34801561045c57600080fd5b506000546001600160a01b031661027e565b34801561047a57600080fd5b5061021e6104893660046112dc565b610941565b34801561049a57600080fd5b5060045461027e906001600160a01b031681565b3480156104ba57600080fd5b5061025c6104c936600461132c565b61096e565b3480156104da57600080fd5b5061021e6104e93660046112dc565b61097c565b3480156104fa57600080fd5b5060015461027e906001600160a01b031681565b61025c6109bd565b34801561052257600080fd5b5061052b610b41565b604080519687526020870195909552938501929092526060840152608083015260a082015260c001610228565b34801561056457600080fd5b5061021e60095481565b34801561057a57600080fd5b5061025c6105893660046112dc565b610bb0565b34801561059a57600080fd5b5061025c6105a936600461134e565b610e6b565b3480156105ba57600080fd5b5061025c6105c936600461139f565b610fb8565b3480156105da57600080fd5b5061021e6105e9366004611311565b600d6020526000908152604090205481565b34801561060757600080fd5b5061025c6106163660046112dc565b610fd3565b34801561062757600080fd5b5061025c610636366004611311565b6110c2565b34801561064757600080fd5b5061021e611138565b34801561065c57600080fd5b5061021e611194565b60006006548261067591906113d2565b6106849064e8d4a510006113d2565b92915050565b61069261119e565b600080546040516001600160a01b03909116914780156108fc02929091818181858888f193505050501580156106cc573d6000803e3d6000fd5b50565b600060075460085460646106e391906113d2565b6106ed91906113f1565b905090565b6001546040516370a0823160e01b815230600482015260009182916001600160a01b03909116906370a082319060240160206040518083038186803b15801561073a57600080fd5b505afa15801561074e573d6000803e3d6000fd5b505050506040513d601f19601f820116820180604052508101906107729190611413565b924792509050565b6001600160a01b038181166000818152600c6020908152604080832054600d835281842054600e9093528184205460025492516370a0823160e01b8152600481019690965293958695869586959394909286929116906370a082319060240160206040518083038186803b1580156107f157600080fd5b505afa158015610805573d6000803e3d6000fd5b505050506040513d601f19601f820116820180604052508101906108299190611413565b939992985090965091945092505050565b61084261119e565b61084c60006111f8565b565b61085661119e565b6001546001600160a01b031663a9059cbb6108796000546001600160a01b031690565b6040516001600160e01b031960e084901b1681526001600160a01b03909116600482015260248101849052604401602060405180830381600087803b1580156108c157600080fd5b505af11580156108d5573d6000803e3d6000fd5b505050506040513d601f19601f820116820180604052508101906108f9919061142c565b6106cc5760405162461bcd60e51b81526020600482015260146024820152731554d115081d1c985b9cd9995c8819985a5b195960621b60448201526064015b60405180910390fd5b60008061094c611248565b90506305f5e10061095d82856113d2565b61096791906113f1565b9392505050565b61097661119e565b50600a55565b600080670de0b6b3a764000061099184610941565b61099b91906113f1565b9050600654816109ab91906113d2565b61096790670de0b6b3a76400006113d2565b600a5442106109fe5760405162461bcd60e51b815260206004820152600d60248201526c141c995cd85b1948195b991959609a1b6044820152606401610938565b60003411610a3e5760405162461bcd60e51b815260206004820152600d60248201526c09aeae6e840e6cadcc8408aa89609b1b6044820152606401610938565b6000610a493461097c565b905060075481600854610a5c9190611449565b1115610a9f5760405162461bcd60e51b815260206004820152601260248201527122bc31b2b2b2399030b63637b1b0ba34b7b760711b6044820152606401610938565b336000908152600d602052604081208054349290610abe908490611449565b9091555050336000908152600e602052604081208054839290610ae2908490611449565b925050819055508060086000828254610afb9190611449565b909155505060408051338152346020820152428183015290517faf50ede3b43cecc4cc16d52148b0bb2d0bc854da353df6b617e250bbb3f7013b9181900360600190a150565b6000806000806000806000610b54611138565b90506000610b606106cf565b9050600080600854600754610b759190611461565b90506000600a544210610b89576000610b97565b42600a54610b979190611461565b600654959c949b50929950909750909550919350915050565b600a544210610bf15760405162461bcd60e51b815260206004820152600d60248201526c141c995cd85b1948195b991959609a1b6044820152606401610938565b60008111610c325760405162461bcd60e51b815260206004820152600e60248201526d135d5cdd081cd95b99081554d11560921b6044820152606401610938565b6001546001600160a01b0316610c805760405162461bcd60e51b81526020600482015260136024820152721554d115081b9bdd0818dbdb999a59dd5c9959606a1b6044820152606401610938565b6000610c8b82610665565b905060075481600854610c9e9190611449565b1115610ce15760405162461bcd60e51b815260206004820152601260248201527122bc31b2b2b2399030b63637b1b0ba34b7b760711b6044820152606401610938565b6001546040516323b872dd60e01b8152336004820152306024820152604481018490526001600160a01b03909116906323b872dd90606401602060405180830381600087803b158015610d3357600080fd5b505af1158015610d47573d6000803e3d6000fd5b505050506040513d601f19601f82011682018060405250810190610d6b919061142c565b610dae5760405162461bcd60e51b81526020600482015260146024820152731554d115081d1c985b9cd9995c8819985a5b195960621b6044820152606401610938565b336000908152600c602052604081208054849290610dcd908490611449565b9091555050336000908152600e602052604081208054839290610df1908490611449565b925050819055508060086000828254610e0a9190611449565b925050819055508160096000828254610e239190611449565b90915550506040805133815260208101839052428183015290517fbeac83768a9ad41c694bb46d75dadbc280dc2cb91f6b691a2df042b66342d6279181900360600190a15050565b610e7361119e565b6001600160a01b038316610ec05760405162461bcd60e51b8152602060048201526014602482015273496e76616c69642055534454206164647265737360601b6044820152606401610938565b6001600160a01b038216610f0d5760405162461bcd60e51b8152602060048201526014602482015273496e76616c6964204d594944206164647265737360601b6044820152606401610938565b6001600160a01b038116610f635760405162461bcd60e51b815260206004820152601960248201527f496e76616c696420436861696e4c696e6b2061646472657373000000000000006044820152606401610938565b600480546001600160a01b039485166001600160a01b03199182168117909255600580549486169482168517905560018054821690921790915560028054821690931790925560038054919093169116179055565b610fc061119e565b600b805460ff1916911515919091179055565b610fdb61119e565b6002546001600160a01b031663a9059cbb610ffe6000546001600160a01b031690565b6040516001600160e01b031960e084901b1681526001600160a01b03909116600482015260248101849052604401602060405180830381600087803b15801561104657600080fd5b505af115801561105a573d6000803e3d6000fd5b505050506040513d601f19601f8201168201806040525081019061107e919061142c565b6106cc5760405162461bcd60e51b8152602060048201526015602482015274151bdad95b881d1c985b9cd9995c8819985a5b1959605a1b6044820152606401610938565b6110ca61119e565b6001600160a01b03811661112f5760405162461bcd60e51b815260206004820152602660248201527f4f776e61626c653a206e6577206f776e657220697320746865207a65726f206160448201526564647265737360d01b6064820152608401610938565b6106cc816111f8565b600080600754600854606461114d91906113d2565b61115791906113f1565b9050601981101561116a57600191505090565b603281101561117b57600291505090565b604b81101561118c57600391505090565b600491505090565b60006106ed611248565b6000546001600160a01b0316331461084c5760405162461bcd60e51b815260206004820181905260248201527f4f776e61626c653a2063616c6c6572206973206e6f7420746865206f776e65726044820152606401610938565b600080546001600160a01b038381166001600160a01b0319831681178455604051919092169283917f8be0079c531659141344cd1fd0a4f28419497f9722a3daafe3b4186f6b6457e09190a35050565b600080600360009054906101000a90046001600160a01b03166001600160a01b031663feaf968c6040518163ffffffff1660e01b815260040160a06040518083038186803b15801561129957600080fd5b505afa1580156112ad573d6000803e3d6000fd5b505050506040513d601f19601f820116820180604052508101906112d19190611492565b509195945050505050565b6000602082840312156112ee57600080fd5b5035919050565b80356001600160a01b038116811461130c57600080fd5b919050565b60006020828403121561132357600080fd5b610967826112f5565b6000806040838503121561133f57600080fd5b50508035926020909101359150565b60008060006060848603121561136357600080fd5b61136c846112f5565b925061137a602085016112f5565b9150611388604085016112f5565b90509250925092565b80151581146106cc57600080fd5b6000602082840312156113b157600080fd5b813561096781611391565b634e487b7160e01b600052601160045260246000fd5b60008160001904831182151516156113ec576113ec6113bc565b500290565b60008261140e57634e487b7160e01b600052601260045260246000fd5b500490565b60006020828403121561142557600080fd5b5051919050565b60006020828403121561143e57600080fd5b815161096781611391565b6000821982111561145c5761145c6113bc565b500190565b600082821015611473576114736113bc565b500390565b805169ffffffffffffffffffff8116811461130c57600080fd5b600080600080600060a086880312156114aa57600080fd5b6114b386611478565b94506020860151935060408601519250606086015191506114d660808701611478565b9050929550929590935056fea26469706673582212201794bec6339cb0d6faf8313f03dc921a8aa6395e5cd39c773f20cd87f1ac860564736f6c63430008090033",
  "linkReferences": {},
  "deployedLinkReferences": {}
}